:100000000C9446000C9465000C9465000C946500FB
:100010000C9465000C9465000C9465000C946500CC
:100020000C9465000C9465000C9465000C946500BC
:100030000C9465000C9465000C9465000C946500AC
:100040000C9465000C9465000C9465000C9465009C
:100050000C9465000C9465000C9465000C9465008C
:100060000C9465000C9465000C9465000C9465007C
:100070000C9465000C9465000C9465000C9465006C
:100080000C9465000C9465000C94650011241FBE4F
:10009000CFEFD0E4DEBFCDBF11E0A0E0B1E0E8E2F9
:1000A000F2E000E00BBF02C007900D92AE30B10746
:1000B000D9F721E0AEE0B1E001C01D92A031B20756
:1000C000E1F70E94F0000C9412010C940000CF9311
:1000D000DF9300D01F92CDB7DEB789837B836A831D
:1000E00089818A3031F48A819B81BC018DE00E9434
:1000F000670080EC90E0FC018081882F90E08072A6
:100100009927892BB1F386EC90E02981FC012083AB
:1001100080E090E00F900F900F90DF91CF910895C5
:10012000CF93DF93CDB7DEB78AE790E02AE730E0E0
:10013000F9012081206EFC0120830000DF91CF9126
:100140000895CF93DF9300D0CDB7DEB79A8389832C
:1001500089819A818736910520F481E080930F018F
:1001600039C089819A818D3C910520F482E0809389
:100170000F0130C089819A818333914020F484E05B
:1001800080930F0127C089819A818939914020F499
:1001900088E080930F011EC089819A818F3F914032
:1001A00020F480E180930F0115C089819A81853602
:1001B000924020F480E280930F010CC089819A81E3
:1001C0008B3C924020F480E480930F0103C080E8D0
:1001D00080930F0100000F900F90DF91CF91089551
:1001E000CF93DF9300D0CDB7DEB70E94900084E2BA
:1001F00090E02FEFFC01208385E290E0FC0110826B
:1002000088E790E0FC01808191819A8389838981CC
:100210009A810E94A10085E290E020910F01FC01EB
:080220002083EECFF894FFCF1C
:0E02280000000002000000006700000000005F
:00000001FF
